S01700007370692D6D61737465722D64656D6F2E7372656336
S113000078240020E5040000DD050000DD05000083
S113001000000000000000000000000000000000DC
S1130020000000000000000000000000DD050000EA
S11300300000000000000000DD050000DD050000F8
S1130040DD050000DD050000DD050000DD05000024
S1130050DD050000DD050000DD050000DD05000014
S1130060DD050000DD050000DD050000DD05000004
S1130070DD050000DD050000DD050000DD050000F4
S1130080DD050000DD05000011080000DD050000AD
S1130090DD050000DD050000DD050000DD050000D4
S11300A0DD050000DD050000DD050000DD050000C4
S11300B00000000010B5064C2378002B07D1054B37
S11300C0002B02D0044800E000BF0123237010BDC0
S11300D034040020000000006C0A0000084B10B536
S11300E0002B03D00749084800E000BF0748036815
S11300F0002B00D110BD064B002BFBD09847F9E72D
S113010000000000380400206C0A00006C0A0000A3
S11301100000000080B500AFBFF34F8F034B044ACB
S1130120DA60BFF34F8FC046FDE7C04600ED00E044
S11301300400FA0590B593B000AF0200FB1D1A70DD
S1130140BB1D0A1C1A700823FB1801221A7008230D
S1130150FB1804225A700823FB1802229A70082301
S1130160FB180022DA700823FB1803221A710823F3
S1130170FB181A225A710823FB1804229A710823C7
S1130180FB180B22DA710823FB1805221A720823C4
S1130190FB1803225A720823FB1806229A720823BA
S11301A0FB183322DA720823FB1807221A73082378
S11301B0FB18D9225A730823FB1808229A730823C0
S11301C0FB180022DA730823FB1809221A74082387
S11301D0FB1800225A740823FB1813229A7408236C
S11301E0FB181A22DA740823FB1819221A7508233B
S11301F0FB1855225A750823FB1825229A750823E3
S1130200FB184022DA750823FB1826221A760823E5
S1130210FB1807225A760823FB1828229A7608230B
S1130220FB181022DA760823FB1829221A770823F0
S1130230FB18E4225A770823FB182E229A77082306
S1130240FB188822DA770823FB1820222F219954DF
S11302500823FB1821222D2199540823FB1822225C
S1130260302199540823FB18BA1D232112785A54BB
S11302700823FB182422372199540823FB1825222C
S1130280802199540823FB182622382199540823E5
S1130290FB182722552199540823FB1828223C21B6
S11302A099540823FB1829228F2199540823FB18F9
S11302B02A223D2199540823FB182B2210219954FA
S11302C00823FB182C22FF2199540823FB182D2204
S11302D0002199542E4B1B680A333B64C0462C4BB7
S11302E01B683A6C9A42FAD83F23FC18294B98476A
S11302F0030023703F23FB181B78002B0AD12649E7
S113030094228023DB058B50234998228023DB052C
S11303108B5010E0204994228023DB058B501C4B2A
S11303201B680A33BB63C046194B1B68BA6B9A42FD
S1130330FAD81A4B98474723FB1800221A7019E081
S11303404723FB181A780823FB185200D05C472374
S1130350FB181B780822BA185B00D31801331B78EA
S113036019000F4B98474723FB181A784723FB18AB
S113037001321A704723FB181A780823FB1852001D
S1130380D35CFF2BDCD1C046BD4613B090BDC04644
S113039050040020A50300000044004115010000A2
S11303A01904000080B582B000AFFB1D01221A7051
S11303B0AA212F20154B9847154B1B680A333B6025
S11303C0C046134B1B683A689A42FAD82F20114B47
S11303D098470300AA2B12D155212F200B4B984785
S11303E02F200C4B98470300552B05D1FB1D0022F1
S11303F01A70FB1D1B7804E0FB1D1B7801E0FB1D3C
S11304001B781800BD4602B080BDC0461904000028
S1130410500400207504000080B584B000AF0200D1
S1130420FB1D1A70BB1D0A1C1A700F23FB18FA1D42
S11304301278802149420A431A700C49942280237D
S11304409B028B500F23FB181B781800084B98470E
S1130450BB1D1B781800064B98470449982280233B
S11304609B028B50C046BD4604B080BD0044004191
S11304708507000080B584B000AF0200FB1D1A7030
S11304800F23FB18FF221A700E23FB18FA1D127893
S11304907F210A401A701149942280239B028B50B9
S11304A00E23FB181B7818000D4B984702000F23EE
S11304B0FB181A70FF200A4B984702000F23FB1801
S11304C01A700649982280239B028B500F23FB1835
S11304D01B781800BD4604B080BDC04600440041EE
S11304E08507000080B582B000AF2F4B7B602F4B97
S11304F03B607A683B689A420CD007E03B681A1D5F
S11305003A607A68111D796012681A603A68284B5B
S11305109A42F3D3274B3B6004E03B681A1D3A60D0
S113052000221A603A68244B9A42F6D3234B7B602C
S1130530234B7A68FF218A439A60224A90235B0006
S11305400221D150204AD37803218B43191C022362
S11305500B43D3701C4AD3780C218B43191C0823FA
S11305600B43D370194A937B30218B43191C2023EE
S11305700B439373154A937B0C218B43191C08235B
S11305800B439373114A937B03218B43191C02235E
S11305900B4393730E4A536880210B4353600D4BF6
S11305A098470D4B9847FEE76C0A000000000020B6
S11305B034040020340400207804002000000000EB
S11305C000ED00E00070004100500041004800418F
S11305D000400041A50800005106000080B500AFAE
S11305E0FEE7000080B500AF054A136A05490B40D9
S11305F01362054B054A1A60C046BD4680BDC0461D
S113060000080040FFFCFFFF00000020808D5B001D
S113061080B500AF0D4998228023DB058B500B4930
S1130620982280239B028B50084988228023DB0573
S11306308B50064988228023DB008B500349882293
S113064080239B028B50C046BD4680BD00440041C0
S113065080B500AF074B9847074B9847074B98471F
S1130660074B9847AA21AA20064B98470023180055
S1130670BD4680BDE5050000890600003508000080
S1130680110600003501000080B582B000AFC046FD
S1130690344BDB699B07DB0FDBB2002BF8D1314A0B
S11306A0136802218B431360C0462E4BDB69DB07C2
S11306B0DB0FDBB2002BF8D12A4A136801210B436C
S11306C01360C046274B1B68DB07DB0FDBB2002B34
S11306D0F8D1C046234BDB69DB07DB0FDBB2002B11
S11306E0F8D1204BDB699B07DB0FDBB2002BF1D188
S11306F01D4AA8231D49D1501B4AA8231C49D15087
S11307001C4B1C4A126A80210A431A621A4B1B4A68
S11307105A80C046184B5B781B06DB0FDBB2002BFC
S1130720F8D1104B164A1A600E4B802292025A607E
S1130730BB1D3B221A800B4ABB1D1B88DBB2137303
S1130740084B084A126802210A431A60C046054B46
S1130750DB699B07DB0FDBB2002BF8D1C046BD463B
S113076002B080BD001C004200440041010003D2DD
S1130770C00001D300040040000C004019400000F8
S11307800C00010080B584B000AF0200FB1D1A709C
S11307900F23FB18FF221A70C0460F4B1B7EDB078A
S11307A0DB0FDBB2002BF8D00B4BFA1D12789A62E8
S11307B0C046094B1B7E5B07DB0FDBB2002BF8D076
S11307C0054B9A6A0F23FB181A700F23FB181B782A
S11307D01800BD4604B080BD001C004280B582B044
S11307E000AF0200FB1D1A70FB1D1B787F2B09D87C
S11307F0064BFA1D127811001F220A400121914074
S11308000A001A60C046BD4602B080BD00E100E0A7
S113081080B500AF054B01229A73054B1B685A1C27
S1130820034B1A60C046BD4680BDC046002C004242
S11308305004002080B500AF134B134A126A802184
S113084009010A431A62114B114A5A80114B124A88
S11308501A80104B114A1A830E4B00221A820D4B38
S113086001229A730B4B01225A7312200C4B9847A6
S1130870084A084B1B889BB202210B439BB213808E
S1130880C046BD4680BDC04600040040000C004088
S11308901B400000002C004220220000EE4D00000E
S11308A0DD07000070B50D4E0D4D0024AD1BAD10DD
S11308B005D0A300F35801349847A542F9D100F0BC
S11308C0C3F8084E084D0024AD1BAD1005D0A3009D
S11308D0F35801349847A542F9D170BD540A000079
S11308E0540A0000540A00005C0A0000034B10B5CF
S11308F0002B02D0024800F005F810BD00000000F3
S11309001509000010B5010000230022002000F0AA
S11309101FF810BD70B5094B094CE41AA41009D096
S1130920084AA518AD00ED182B68013C9847043D12
S1130930002CF9D100F092F870BDC046680A00009E
S11309406C0A0000FFFFFF3F7047C0467047C04677
S1130950F0B54E464546DE465746E0B5364D83B0C3
S11309600600286898460F009146FFF7EDFF334BC9
S11309701C68A4235B00E058002852D043681F2B56
S113098013DC5A1C0192002E28D1019A02339B00D9
S113099042601F502868FFF7D9FF002003B03CBC19
S11309A090469946A246AB46F0BD254B002B3DD060
S11309B0C820400000E000BF002837D0A422002354
S11309C05200A15843600160A05040328350043269
S11309D08350013301930023002ED6D09A0092460F
S11309E082444A46882154466250C42252009146A9
S11309F081444A468739994012688B460A43944693
S1130A004A4661461160842241465200A150022E9A
S1130A10BBD102005C468D32FF3211680C43146076
S1130A20B3E720004D30FF30E050A7E72868FFF718
S1130A308DFF01204042B1E730040020440A000049
S1130A400000000008000020F8B5C046F8BC08BC4F
S1130A509E467047ED080000DD000000F8B5C04672
S10F0A60F8BC08BC9E467047B5000000BE
S1130A6C808D5B000000000000000000F4020020F8
S1130A7C5C030020C4030020000000000000000000
S1130A8C0000000000000000000000000000000056
S1130A9C0000000000000000000000000000000046
S1130AAC0000000000000000000000000000000036
S1130ABC0000000000000000000000000000000026
S1130ACC0000000000000000000000000000000016
S1130ADC0000000000000000000000000000000006
S1130AEC00000000000000000000000000000000F6
S1130AFC00000000000000000000000000000000E6
S1130B0C00000000000000000000000000000000D5
S1130B1C01000000000000000E33CDAB34126DE672
S1130B2CECDE05000B0000000000000000000000DB
S1130B3C00000000000000000000000000000000A5
S1130B4C0000000000000000000000000000000095
S1130B5C0000000000000000000000000000000085
S1130B6C0000000000000000000000000000000075
S1070E9C54040020D6
S9030000FC
