S01700007370692D6D61737465722D64656D6F2E7372656336
S113000078240020150100000D0200000D020000FC
S113001000000000000000000000000000000000DC
S11300200000000000000000000000000D020000BD
S113003000000000000000000D0200000D0200009E
S11300400D0200000D0200000D0200000D02000070
S11300500D0200000D0200000D0200000D02000060
S11300600D0200000D0200000D0200000D02000050
S11300700D0200000D0200000D0200000D02000040
S11300800D0200000D020000A10400000D0200009A
S11300900D0200000D0200000D0200000D02000020
S11300A00D0200000D0200000D0200000D02000010
S11300B00000000010B5064C2378002B07D1054B37
S11300C0002B02D0044800E000BF0123237010BDC0
S11300D03404002000000000FC060000084B10B5AA
S11300E0002B03D00749084800E000BF0748036815
S11300F0002B00D110BD064B002BFBD09847F9E72D
S11301000000000038040020FC060000FC0600008B
S11301100000000080B582B000AF2F4B7B602F4BF6
S11301203B607A683B689A420CD007E03B681A1D32
S11301303A607A68111D796012681A603A68284B2F
S11301409A42F3D3274B3B6004E03B681A1D3A60A4
S113015000221A603A68244B9A42F6D3234B7B6000
S1130160234B7A68FF218A439A60224A90235B00DA
S11301700221D150204AD37803218B43191C022336
S11301800B43D3701C4AD3780C218B43191C0823CE
S11301900B43D370194A937B30218B43191C2023C2
S11301A00B439373154A937B0C218B43191C08232F
S11301B00B439373114A937B03218B43191C022332
S11301C00B4393730E4A536880210B4353600D4BCA
S11301D098470D4B9847FEE7FC06000000000020FE
S11301E034040020340400207804002000000000BF
S11301F000ED00E000700041005000410048004163
S113020000400041350500000D03000080B500AF3B
S1130210FEE7000080B500AF054A136A05490B40AC
S11302201362054B054A1A60C046BD4680BDC046F0
S113023000080040FFFCFFFF00000020808D5B00F1
S113024080B500AF0D4998228023DB058B500B4904
S1130250982280239B028B50084988228023DB0547
S11302608B50064988228023DB008B500349882267
S113027080239B028B50C046BD4680BD0044004194
S113028080B500AF0D4B98470D4B98470D4B9847E1
S113029056200D4B984765200B4B98476E200A4B10
S11302A098476920084B98477320074B984707499C
S11302B0982280239B028B50EAE7C0462903000062
S11302C0C504000041020000D102000000440041C6
S11302D080B584B000AF0200FB1D1A70094B1B6887
S11302E00A33FB60C046074B1B68FA689A42FAD887
S11302F0FB1D1B781800044B9847C046BD4604B04C
S113030080BDC046500400202504000080B500AF25
S1130310034B9847034B984700231800BD4680BD04
S1130320150200008102000080B582B000AFC04613
S1130330344BDB699B07DB0FDBB2002BF8D1314A6E
S1130340136802218B431360C0462E4BDB69DB0725
S1130350DB0FDBB2002BF8D12A4A136801210B43CF
S11303601360C046274B1B68DB07DB0FDBB2002B97
S1130370F8D1C046234BDB69DB07DB0FDBB2002B74
S1130380F8D1204BDB699B07DB0FDBB2002BF1D1EB
S11303901D4AA8231D49D1501B4AA8231C49D150EA
S11303A01C4B1C4A126A80210A431A621A4B1B4ACC
S11303B05A80C046184B5B781B06DB0FDBB2002B60
S11303C0F8D1104B164A1A600E4B802292025A60E2
S11303D0BB1D3B221A800B4ABB1D1B88DBB2137367
S11303E0084B084A126802210A431A60C046054BAA
S11303F0DB699B07DB0FDBB2002BF8D1C046BD469F
S113040002B080BD001C004200440041010003D240
S1130410C00001D300040040000C0040194000005B
S11304200C00010080B582B000AF0200FB1D1A7001
S1130430C0460D4B1B7EDB07DB0FDBB2002BF8D075
S1130440094BFA1D12789A62C046074B1B7E5B0764
S1130450DB0FDBB2002BF8D0034B9B6ADBB2180036
S1130460BD4602B080BDC046001C004280B582B0CB
S113047000AF0200FB1D1A70FB1D1B787F2B09D8EF
S1130480064BFA1D127811001F220A4001219140E7
S11304900A001A60C046BD4602B080BD00E100E01B
S11304A080B500AF054B01229A73054B1B685A1C9B
S11304B0034B1A60C046BD4680BDC046002C0042B6
S11304C05004002080B500AF134B134A126A8021F8
S11304D009010A431A62114B114A5A80114B124AFC
S11304E01A80104B114A1A830E4B00221A820D4BAC
S11304F001229A730B4B01225A7312200C4B98471A
S1130500084A084B1B889BB202210B439BB2138001
S1130510C046BD4680BDC04600040040000C0040FB
S11305201B400000002C004220220000EE4D000081
S11305306D04000070B50D4E0D4D0024AD1BAD10C3
S113054005D0A300F35801349847A542F9D100F02F
S1130550C3F8084E084D0024AD1BAD1005D0A30010
S1130560F35801349847A542F9D170BDE406000060
S1130570E4060000E4060000EC060000034B10B59E
S1130580002B02D0024800F005F810BD0000000066
S1130590A505000010B5010000230022002000F092
S11305A01FF810BD70B5094B094CE41AA41009D00A
S11305B0084AA518AD00ED182B68013C9847043D86
S11305C0002CF9D100F092F870BDC046F806000086
S11305D0FC060000FFFFFF3F7047C0467047C0465F
S11305E0F0B54E464546DE465746E0B5364D83B037
S11305F00600286898460F009146FFF7EDFF334B3D
S11306001C68A4235B00E058002852D043681F2BC9
S113061013DC5A1C0192002E28D1019A02339B004C
S113062042601F502868FFF7D9FF002003B03CBC8C
S113063090469946A246AB46F0BD254B002B3DD0D3
S1130640C820400000E000BF002837D0A4220023C7
S11306505200A15843600160A050403283500432DC
S11306608350013301930023002ED6D09A00924682
S113067082444A46882154466250C422520091461C
S113068081444A468739994012688B460A43944606
S11306904A4661461160842241465200A150022E0E
S11306A0BBD102005C468D32FF3211680C431460EA
S11306B0B3E720004D30FF30E050A7E72868FFF78C
S11306C08DFF01204042B1E730040020D406000031
S11306D00000000008000020F8B5C046F8BC08BCC3
S11306E09E4670477D050000DD000000F8B5C04659
S10F06F0F8BC08BC9E467047B500000032
S11306FC808D5B000000000000000000F40200206C
S113070C5C030020C4030020000000000000000073
S113071C00000000000000000000000000000000C9
S113072C00000000000000000000000000000000B9
S113073C00000000000000000000000000000000A9
S113074C0000000000000000000000000000000099
S113075C0000000000000000000000000000000089
S113076C0000000000000000000000000000000079
S113077C0000000000000000000000000000000069
S113078C0000000000000000000000000000000059
S113079C0000000000000000000000000000000049
S11307AC01000000000000000E33CDAB34126DE6E6
S11307BCECDE05000B00000000000000000000004F
S11307CC0000000000000000000000000000000019
S11307DC0000000000000000000000000000000009
S11307EC00000000000000000000000000000000F9
S11307FC00000000000000000000000000000000E9
S1070B2C5404002049
S9030000FC
